:100000000C94C0310C94F1310C94F1310C94F13119
:100010000C94F1310C94D9A90C94F1310C94F13178
:100020000C9468AD0C94F1310C94F1310C94F131D5
:100030000C94F1310C94F1310D94BA1D0D94C31C44
:100040000C94F1310C94FAB50C94F1310C94F1311B
:100050000C94F1310C94F1310C94F1310D940A8827
:100060000C94F1310C9412A20C94F1310C94F131F6
:100070000C94F1310C94F1310C94F1310C94F13178
:100080000C94F1310C94F1310C94F1310C94F13168
:100090000C94CEA10C94F1310C94F1310C94F1310B
:1000A0000C94F1310C94F1310C94F1310C94F13148
:1000B0000C94F1310C94F1310C94F1310C94F13138
:1000C0000C94F1310C94F1310C94F1310C94F8DD75
:1000D0000C94F1310C94F1310C94F1310C94F13118
:1000E0000C94F1314B4D514D574D624D6D4DF24DCC
:1000F000784D814D8A4D954DA04DAB4DBB4DC64DB4
:10010000F24DD14DDC4DE74DDA8DE38D888D578D65
:10011000278DA990068E258FAC8F0690229059903E
:10012000F6CEF6CEF9CEF6CEF9CEFCCEFFCE2DEB46
:1001300043EB56EB63EB6DEB9BEBBCEBC2EBD0EB15
:10014000D3EBD5EBDFEBF0EB01ECC501B701CD0153
:10015000BF01CB0195017101A90161014B0137017B
:100160008301DB015901570189017F01C901550153
:10017000B1018101A70187016901A1013101490193
:100180006B01630197013F01D901B301A1017B011B
:100190008F014301084AD73B3BCE016E84BCBFFDB3
:1001A000C12F3D6C74319ABD56833DDA3D00C77F47
:1001B00011BED9E4BB4C3E916BAAAABE00000080E0
:1001C0003F05A84CCDB2D44EB93836A9020C50B96F
:1001D000918688083CA6AAAA2ABE000000803F0794
:1001E000634236B79BD8A71A39685618AEBAAB55D2
:1001F0008C1D3CB7CC5763BD6DEDFD753EF6177297
:1002000031BF000000803F08000000BE9224491268
:100210003EABAAAA2ABECDCCCC4C3E00000080BE8C
:10022000ABAAAAAA3E00000000BF000000803F0069
:1002300000000000084178D3BB4387D1133D190E5D
:100240003CC3BD4282AD2B3E68EC8276BED98FE1C5
:10025000A93E4C80EFFFBE01C4FF7F3F00000000BD
:1002600000000D946B820D944C390D94DDA50D9416
:1002700091410D94885B0D941D820D94C6810D945F
:1002800083820D94B6800D9499820D9452390D9409
:10029000B0380D946F820D947A410D946B390D94A2
:1002A0009C7C0D94F43D0D94FD7B0D943A580D9477
:1002B00091570D9488570D945C390D94745B0D948F
:1002C00034390D946C410D9479820D94A9810D946B
:1002D0006F810D9460820D9475820D94E3800D946E
:1002E00046390D9450410D94FB7C0D947B390D944F
:1002F00000820D9442810D9491820D94565B0D9471
:10030000C6570D9467820D947E570D946D7C0D94A5
:100310005A820D94A9570D9431810D948C810D94BE
:1003200095820D94077C0D9440390D944A410D94AB
:100330007D820D94117C0D943F7C0D94AD7D0D94C8
:100340006F5B0D949E820D94FF580D94AC380D9404
:1003500056820D945E410D943A390D9466390D9490
:10036000A67F0D9464820D948B820D94D27D0D94A2
:1003700010410D9401A40D9428800D9451810D9489
:1003800028410D94BB380D9461390D9402410D94B0
:1003900057390D9403580D9444410D9416410D9412
:1003A000B6380D9473800D94795B0D947E5B0D943B
:1003B000E3810D9487820D9482570D943D5B0D94DB
:1003C000835B6E616E00696E66004E414E494E4918
:1003D0005459494E46CDCCCC3D0AD7233C17B7D112
:1003E0003877CC2B329595E6241FB14F0A000020B8
:1003F000410000C84200401C4620BCBE4CCA1B0E37
:100400005AAEC59D7400407A10F35A00A0724E187F
:10041000090010A5D4E80000E87648170000E40BB6
:1004200054020000CA9A3B000000E1F5050000807C
:10043000969800000040420F000000A086010000D6
:1004400000102700000000E8030000000064000026
:100450000000000A00000000000100000000002C65
:1004600076D888DC674F0823DFC1DFAE59E1B1B72A
:1004700096E5E3E453C63AE651997696E8E6C284F7
:1004800026EB898C9B62ED407C6FFCEFBC9C9F400F
:10049000F2BAA56FA5F490055A2AF75C936B6CF934
:1004A000676DC11BFCE0E40D47FEF520E6B500D00A
:1004B000ED902E0300943577050080841E0800001F
:1004C000204E0A000000C80C333333330F986E12ED
:1004D000831141EF8D2114893BE65516CFFEE6DBF3
:1004E00018D1844B381BF77C1D901DA4BBE424203D
:1004F0003284725E228100C9F124ECA1E53D2763BC
:1005000064696E6F70737578585B0025642062793A
:10051000746573207772697474656E20746F2045FA
:100520004550524F4D20617420616464726573734D
:1005300020307825303478004433202D20526561F6
:10054000642F577269746520454550524F4D0A001B
:1005500020436F756E7420583A2000534420707207
:10056000696E74696E67206279746520004E6F74DD
:1005700020696E206661726D206D6F64652E00418A
:1005800063746976652045787472756465723A2083
:1005900000496E76616C6964206578747275646573
:1005A00072005A204F666673657400556E6B6E6FED
:1005B000776E20636F6D6D616E643A2022004D325C
:1005C000303020496E76616C69642065787472758C
:1005D00064657220007A5F6D61783A20007A5F6D01
:1005E000696E3A2000795F6D61783A2000795F6D1D
:1005F000696E3A2000785F6D61783A20006F70650F
:100600006E0054524947474552454400785F6D6932
:100610006E3A20005265706F7274696E6720656E65
:100620006473746F70207374617475730000534940
:100630004C454E54004E4F524D414C002553204DD9
:100640004F44453A2050657263656E7420646F6E46
:10065000653A2025643B207072696E742074696D60
:10066000652072656D61696E696E6720696E206DC7
:10067000696E733A2025640A00456E642066696CD1
:1006800065206C69737400426567696E2066696CE9
:1006900065206C697374000A50494E4441207465AA
:1006A0006D70657261747572653A20252E31662011
:1006B0005A20736869667420286D6D293A20252EAA
:1006C0003366000A537465703A2025642F360A0099
:1006D0000A537465703A2025642F362028736B699D
:1006E00070706564290A50494E44412074656D70EC
:1006F000657261747572653A202564205A207368AA
:1007000069667420286D6D293A300A000A5A4552EC
:100710004F3A20252E33660A007374617274207478
:10072000656D70657261747572653A20252E31664B
:100730000A0025642020252E326600255320583AD1
:1007400020252E356620593A20252E3566205A3A26
:1007500020252E35660A00536C6565702E2E2E00FE
:100760004E6F7420696E206661726D206D6F6465D6
:100770002E0025640045303A25642052504D0A5021
:10078000524E303A25642052504D0A0025640041F3
:1007900075746F0020452F443D00416476616E639F
:1007A00065204B3D004D32323020532569002553E2
:1007B00046696C616D656E742073657474696E67EB
:1007C000733A2044697361626C65640A002553467C
:1007D000696C616D656E742073657474696E67739E
:1007E0003A0A25532020204D3230302044252E3225
:1007F000660A002553526574726163743A20533D52
:100800004C656E67746820286D6D2920463A5370D8
:1008100065656420286D6D2F6D29205A3A205A4C49
:1008200069667420286D6D290A25532020204D32D9
:1008300030372053252E32662046252E3266205A28
:10084000252E32660A25535265636F7665723A200B
:10085000533D4578747261206C656E67746820281A
:100860006D6D2920463A537065656420286D6D2FA3
:100870006D290A25532020204D3230382053252E53
:1008800032662046252E32660A25534175746F2D37
:10089000526574726163743A20533D3020746F2046
:1008A00064697361626C652C203120746F20696EFD
:1008B0007465727072657420657874727564652DE4
:1008C0006F6E6C79206D6F76657320617320726531
:1008D000747261637473206F72207265636F7665E2
:1008E000726965730A25532020204D323039205318
:1008F00025640A0025535049442068656174626587
:10090000642073657474696E67733A0A25532020F6
:10091000204D3330342050252E32662049252E328A
:10092000662044252E32660A002553504944207320
:10093000657474696E67733A0A25532020204D331D
:1009400030312050252E32662049252E3266204433
:10095000252E32660A002553537465707320706526
:100960007220756E69743A0A255320204D39322061
:1009700058252E32662059252E3266205A252E32D1
:10098000662045252E32660A25534D6178696D75BE
:100990006D20666565647261746573202D206E6FCD
:1009A000726D616C20286D6D2F73293A0A255320D2
:1009B000204D3230332058252E32662059252E32D4
:1009C00066205A252E32662045252E32660A25538A
:1009D0004D6178696D756D206665656472617465D9
:1009E00073202D20737465616C746820286D6D2FE1
:1009F00073293A0A255320204D3230332058252EB2
:100A000032662059252E3266205A252E3266204520
:100A1000252E32660A25534D6178696D756D20610A
:100A20006363656C65726174696F6E202D206E6FF3
:100A3000726D616C20286D6D2F7332293A0A25532F
:100A400020204D3230312058256C752059256C7589
:100A5000205A256C752045256C750A25534D617803
:100A6000696D756D20616363656C65726174696F32
:100A70006E202D20737465616C746820286D6D2F55
:100A80007332293A0A255320204D3230312058251F
:100A90006C752059256C75205A256C752045256C80
:100AA000750A2553416363656C65726174696F6E85
:100AB0003A20533D616363656C65726174696F6E62
:100AC0002C20543D726574726163742061636365A8
:100AD0006C65726174696F6E0A255320204D323047
:100AE000342053252E32662054252E32660A255393
:100AF000416476616E636564207661726961626CDF
:100B000065733A20533D4D696E2066656564726178
:100B1000746520286D6D2F73292C20543D4D696E0E
:100B20002074726176656C206665656472617465B7
:100B300020286D6D2F73292C20423D6D696E696DE3
:100B4000756D207365676D656E742074696D6520C1
:100B5000286D73292C20583D6D6178696D756D2065
:100B60005859206A65726B20286D6D2F73292C20CF
:100B7000205A3D6D6178696D756D205A206A6572E5
:100B80006B20286D6D2F73292C2020453D6D6178D9
:100B9000696D756D2045206A65726B20286D6D2F1B
:100BA00073290A255320204D3230352053252E320B
:100BB000662054252E32662042252E326620582586
:100BC0002E32662059252E3266205A252E32662076
:100BD00045252E32660A2553486F6D65206F66667F
:100BE00073657420286D6D293A0A255320204D32F3
:100BF00030362058252E32662059252E3266205A4E
:100C0000252E32660A004625642025640A004D4DD3
:100C100055203C3D2027462564202564270A0050A6
:100C20004944204175746F74756E652066696E69FC
:100C300073686564212050757420746865206C6148
:100C40007374204B702C204B6920616E64204B64C0
:100C500020636F6E7374616E74732066726F6D20A3
:100C600061626F766520696E746F20436F6E66698E
:100C70006775726174696F6E2E6800504944204137
:100C800075746F74756E65206661696C656421208A
:100C900074696D656F75740020403A00543A0042E3
:100CA0003A00504944204175746F74756E65206632
:100CB00061696C6564212054656D7065726174753D
:100CC000726520746F6F206869676800204B643A12
:100CD0002000204B693A2000204B703A200020432E
:100CE0006C61737369632050494420002054753A45
:100CF0002000204B753A2000206D61783A200020BA
:100D00006D696E3A200020643A20002062696173A8
:100D10003A200020453A00205A3A0020593A002053
:100D2000453A00205A3A0020593A00583A00005AF1
:100D300030005A31005930005931005830005831D4
:100D400000456E642073746F70732064696167007E
:100D50002E0044656C6574696F6E206661696C6510
:100D6000642C2046696C653A200046696C652064F5
:100D7000656C657465643A004E6F7420534420704E
:100D800072696E74696E67005072696E7420736167
:100D9000766564005344207072696E7420706175CA
:100DA000736564000A002F000A006673656E736F36
:100DB000725F726573746F72655F7072696E745F73
:100DC000616E645F636F6E74696E75650A002F2FC4
:100DD00020616374696F6E3A63616E63656C004392
:100DE000524153485F43414E43454C0043524153A7
:100DF000485F5245434F5645520043524153485F66
:100E00005245434F5645520022283229005400448F
:100E100075706C696361746520542D636F6465201F
:100E200069676E6F7265642E0A004475706C696341
:100E300061746520542D636F64652069676E6F72FD
:100E400065642E0A00496E76616C696420542063E3
:100E50006F64652E00556E6B6E6F776E204D20634C
:100E60006F64653A202573200A002F00413A00572D
:100E700061697420666F7220414D4249454E54208D
:100E80007461726765742074656D706572617475E4
:100E900072653A006E6F2076616C696420636F6DD5
:100EA0006D616E64002C20002C20002C20006E2F21
:100EB00061002C20002C20002C20006E2F61002FC0
:100EC00000503A005761697420666F722050494E95
:100ED0004441207461726765742074656D70657239
:100EE00061747572653A004C414E472053454C2061
:100EF000464F5243454400222831290030303030DB
:100F0000303030302D303030302D303030302D30EA
:100F10003030302D303030303030303030303030D4
:100F20000020555549443A00310020455854525547
:100F30004445525F434F554E543A005072757361A9
:100F4000206933204D4B335300204D414348494ED7
:100F5000455F545950453A00312E3000206261738C
:100F60006564206F6E204D61726C696E2046495237
:100F70004D574152455F55524C3A68747470733AFC
:100F80002F2F6769746875622E636F6D2F7072758D
:100F9000736133642F50727573612D4669726D777A
:100FA0006172652050524F544F434F4C5F5645522B
:100FB00053494F4E3A004649524D574152455F4EB4
:100FC000414D453A50727573612D4669726D776176
:100FD000726520004D31313320530020423A002009
:100FE000453A00543A0020413A0020503A0020424D
:100FF000403A0020403A00202F003A0020540020C0
:101000002F0020423A00202F006F6B20543A002519
:1010100069206D696E2C2025692073656300496E17
:1010200076616C6964204D20636F64653A20257396
:10103000200A00556E6B6E6F776E204720636F64D9
:10104000653A202573200A004D6573682062656447
:10105000206C6576656C696E67206E6F74206163C5
:10106000746976652E000A002020000A4D656173C0
:101070007572656420706F696E74733A000A5A2045
:10108000736561726368206865696768743A2000F7
:101090002C004E756D20582C593A2000206D696344
:1010A000726F6E730045786365737369766520624D
:1010B0006564206C6576656C696E6720636F72721B
:1010C000656374696F6E3A2000426564206C6576D2
:1010D000656C696E67206661696C65642E20536576
:1010E0006E736F72207472696767657265642074CD
:1010F0006F6F20686967682E0A00426564206C651E
:1011000076656C696E67206661696C65642E205334
:10111000656E736F7220646973636F6E6E6563745E
:101120006564206F72206361626C652062726F6B10
:10113000656E2E0A004732382057300050494E4421
:10114000412070726F62652063616C6962726174C4
:10115000696F6E20737461727400473238205730A3
:10116000004D3234005345545F43484F505F0053A5
:1011700045545F535445505F005345545F574156A3
:10118000455F00544D435F0043524153485F005058
:1011900072657373206B6E6F6220746F207072655E
:1011A00068656174206E6F7A7A6C6520616E642068
:1011B000636F6E74696E75652E00506C6561736542
:1011C00020707265737320746865206B6E6F622087
:1011D000746F20756E6C6F61642066696C616D65FB
:1011E0006E740052656D6F7665206F6C6420666961
:1011F0006C616D656E7420616E64207072657373CE
:1012000020746865206B6E6F6220746F2073746148
:101210007274206C6F6164696E67206E65772066FA
:10122000696C616D656E742E00616E64207072650C
:10123000737320746865206B6E6F6200496E73650E
:1012400072742066696C616D656E7400436F6C6FBB
:1012500072206E6F7420636F7272656374004669EA
:101260006C616D656E74206E6F74206C6F61646567
:1012700064004368616E67656420636F72726563C2
:10128000746C793F004C6F6164696E6720636F6CAA
:101290006F72004368616E67652073756363657381
:1012A000732100506C65617365206F70656E2069F5
:1012B000646C657220616E642072656D6F76652066
:1012C00066696C616D656E74206D616E75616C6CC4
:1012D000792E005761732066696C616D656E7420AC
:1012E000756E6C6F61642073756363657373667587
:1012F0006C3F00506C656173652075706772616446
:10130000652E004E6577206669726D776172652083
:1013100076657273696F6E20617661696C61626C6B
:10132000653A0057616974696E6720666F72205074
:10133000494E44412070726F626520636F6F6C6923
:101340006E670043726173682064657465637465D9
:10135000642E20526573756D65207072696E743FDE
:101360000043726173682064657465637465642EFC
:101370000045787472756465720043686F6F7365B9
:101380002065787472756465723A0043686F6F7394
:10139000652066696C616D656E743A004E6F206DF4
:1013A0006F76652E005761697420666F72207573C1
:1013B00065722E2E2E00536F6D652070726F626CF9
:1013C000656D20656E636F756E74657265642C2043
:1013D0005A2D6C6576656C696E6720656E666F72F6
:1013E000636564202E2E2E00537461626C6520614B
:1013F0006D6269656E742074656D70657261747577
:1014000072652032312D323643206973206E656556
:101410006465642061207269676964207374616E19
:10142000642069732072657175697265642E00505D
:101430006C656173652072756E2058595A2063611E
:101440006C6962726174696F6E2066697273742E62
:101450000073746172740A006164635F696E697419
:101460000A001B5B324A1B5B313B31484F72696794
:10147000696E616C2050727573612069331B5B3239
:101480003B334850727573612052657365617263B6
:101490006800466163746F72792052455345540069
:1014A00044495341424C45440A00454E41424C4553
:1014B00044004653656E736F722025530A004170D5
:1014C00072203235203230313900436F6D70696CD3
:1014D00065643A2000286E6F6E652C206465666135
:1014E000756C7420636F6E666967290041707220A5
:1014F000323520323031392032323A31313A3138D6
:101500000020332E372E302D323230310A00205554
:10151000706C6F616420696E2070726F67726573A2
:101520007300205A3A0020593A0020583A0043529A
:101530004153485F4445544543544544585900433A
:10154000524153485F444554454354454459004330
:10155000524153485F444554454354454458004D17
:101560003239005072757361206933204D4B33530B
:10157000204F4B2E00426C61636B6F7574206F635C
:101580006375727265642E205265636F7665722092
:101590007072696E743F0053656C66746573742075
:1015A00077696C6C2062652072756E20746F2063A1
:1015B000616C6962726174652061636375726174E4
:1015C000652073656E736F726C65737320726568E6
:1015D0006F6D696E672E00546865726520697320AF
:1015E0007374696C6C2061206E65656420746F2073
:1015F0006D616B65205A2063616C69627261746908
:101600006F6E2E20506C6561736520666F6C6C6F19
:101610007720746865206D616E75616C2C2063683D
:10162000617074657220466972737420737465709A
:10163000732C2073656374696F6E2043616C6962FB
:10164000726174696F6E20666C6F772E00507269DC
:101650006E74657220686173206E6F7420626565B8
:101660006E2063616C69627261746564207965746F
:101670002E20506C6561736520666F6C6C6F7720EF
:10168000746865206D616E75616C2C206368617093
:101690007465722046697273742073746570732C5C
:1016A0002073656374696F6E2043616C6962726157
:1016B00074696F6E20666C6F772E004F6C642073B8
:1016C000657474696E677320666F756E642E20444E
:1016D000656661756C74205049442C2045737465AF
:1016E0007073206574632E2077696C6C20626520AE
:1016F0007365742E005761726E696E673A20626F6F
:101700007468207072696E746572207479706520D7
:10171000616E64206D6F74686572626F61726420BF
:1017200074797065206368616E6765642E00576127
:10173000726E696E673A207072696E746572207499
:10174000797065206368616E6765642E0057617209
:101750006E696E673A206D6F74686572626F617250
:10176000642074797065206368616E6765642E001B
:1017700045787465726E616C2053504920666C61C7
:10178000736820573235583230434C206E6F7420C6
:10179000726573706F6E64696E672E004372617359
:1017A000684465746563742044495341424C454420
:1017B00000437261736844657465637420454E41EB
:1017C000424C454421002020506C616E6E6572428F
:1017D000756666657242797465733A2000204672B8
:1017E0006565204D656D6F72793A2000207C20413F
:1017F0007574686F723A2000204C617374205570C4
:1018000064617465643A200020536F667477617276
:101810006520526573657400205761746368646F56
:1018200067205265736574002042726F776E206F77
:101830007574205265736574002045787465726E06
:10184000616C20526573657400506F7765725570D6
:10185000006572726F722077726974696E672074A6
:101860006F2066696C6500656E6473746F707320B9
:101870006869743A2000446F6E6520736176696E02
:10188000672066696C652E006F6B0058595A20639B
:10189000616C6962726174696F6E20616C6C207238
:1018A000696768742E20536B65772077696C6C20AC
:1018B000626520636F72726563746564206175741C
:1018C0006F6D61746963616C6C792E0058595A2090
:1018D00063616C6962726174696F6E20616C6C2007
:1018E00072696768742E20582F59206178657320BB
:1018F00061726520736C696768746C7920736B65BD
:101900007765642E20476F6F64206A6F62210058EC
:10191000595A2063616C6962726174696F6E206FDD
:101920006B2E20582F5920617865732061726520D5
:1019300070657270656E646963756C61722E2043A8
:101940006F6E67726174756C6174696F6E7321007C
:1019500058595A2063616C6962726174696F6E20B4
:101960006661696C65642E205269676874206672CE
:101970006F6E742063616C6962726174696F6E204E
:10198000706F696E74206E6F742072656163686138
:10199000626C652E0058595A2063616C69627261ED
:1019A00074696F6E206661696C65642E2046726F83
:1019B0006E742063616C6962726174696F6E20700D
:1019C0006F696E7473206E6F7420726561636861F5
:1019D000626C652E0058595A2063616C69627261AD
:1019E00074696F6E206661696C65642E20506C6549
:1019F00061736520636F6E73756C74207468652005
:101A00006D616E75616C2E0058595A2063616C6966
:101A100062726174696F6E20636F6D70726F6D6951
:101A20007365642E2052696768742066726F6E74E5
:101A30002063616C6962726174696F6E20706F6996
:101A40006E74206E6F7420726561636861626C658C
:101A50002E0058595A2063616C6962726174696F13
:101A60006E20636F6D70726F6D697365642E2046B2
:101A7000726F6E742063616C6962726174696F6EFB
:101A800020706F696E7473206E6F7420726561636D
:101A90006861626C652E0058595A2063616C6962F6
:101AA000726174696F6E206661696C65642E204294
:101AB00065642063616C6962726174696F6E207025
:101AC0006F696E7420776173206E6F7420666F7516
:101AD0006E642E00506C6561736520706C61636587
:101AE00020737465656C207368656574206F6E2063
:101AF000686561746265642E0044697374616E6325
:101B000065206265747765656E20746970206F6604
:101B100020746865206E6F7A7A6C6520616E64202F
:101B20007468652062656420737572666163652000
:101B3000686173206E6F74206265656E20736574D2
:101B4000207965742E20506C6561736520666F6C1A
:101B50006C6F7720746865206D616E75616C2C20E8
:101B6000636861707465722046697273742073745F
:101B70006570732C2073656374696F6E204669729B
:101B80007374206C617965722063616C6962726143
:101B900074696F6E2E00506C6163652061207368FC
:101BA000656574206F6620706170657220756E6463
:101BB000657220746865206E6F7A7A6C6520647532
:101BC00072696E67207468652063616C6962726116
:101BD00074696F6E206F662066697273742034209A
:101BE000706F696E74732E20496620746865206E6C
:101BF0006F7A7A6C652063617463686573207468BA
:101C0000652070617065722C20706F776572206F2F
:101C1000666620746865207072696E7465722069EA
:101C20006D6D6564696174656C792E00506C6561D9
:101C300073652072656D6F766520737465656C20C1
:101C400073686565742066726F6D20686561746283
:101C500065642E00497320737465656C2073686534
:101C60006574206F6E20686561746265643F002052
:101C70006F66203400536561726368696E67206225
:101C800065642063616C6962726174696F6E207053
:101C90006F696E7400206F662039004D6561737541
:101CA00072696E67207265666572656E636520682D
:101CB0006569676874206F662063616C6962726130
:101CC00074696F6E20706F696E7400506C6561731B
:101CD0006520636C65616E20746865206E6F7A7A2A
:101CE0006C6520666F722063616C696272617469F1
:101CF0006F6E2E20436C69636B207768656E20647D
:101D00006F6E652E004175746F20686F6D65007889
:101D1000797A63616C5F6D656173737572655F6518
:101D20006E7465720A0078797A63616C5F737069AA
:101D300072616C382063783D25642063793D2564A9
:101D4000207A303D256420647A3D256420726164E8
:101D50006975733D25642061643D25640A007879C6
:101D60007A63616C5F7365617263685A206E6F207D
:101D70007369676E616C0A20783D256C6420793D3B
:101D8000256C64207A3D256C640A00204F4E2D534B
:101D900049474E414C20617420783D256420793DAF
:101DA0002564207A3D25642061643D25640A00781D
:101DB000797A63616C5F7365617263685A20783DFC
:101DC000256C6420793D256C64207A3D256C640A7D
:101DD000000A00253032780078797A63616C5F738D
:101DE00063616E5F706978656C735F33327833322C
:101DF0002063783D25642063793D2564206D696EFC
:101E00005F7A3D2564206D61785F7A3D25640A0024
:101E1000202532642025640A000A0025303278002B
:101E2000206D696E3D2564206D61783D25642064D8
:101E300069663D25640A006D61785F633D25326403
:101E4000206D61785F6C3D25640A006D61785F6389
:101E50003D2564206D61785F723D2564206D617859
:101E60005F6D617463683D25640A0020783D2564D8
:101E700020793D2564207A3D25640A002070617434
:101E80007465726E20666F756E64206174202564BF
:101E90002025640A000000F000F801FC03FE07FEA4
:101EA00007FE07FE07FC03F801F000000073697AE3
:101EB000656F6628746F74616C293D25640A007330
:101EC000697A656F6628626C6F636B5F62756666C0
:101ED0006572293D25640A0078797A63616C5F6DCB
:101EE000656173737572655F6C656176650A007014
:101EF0006F696E743D256420783D256420793D2509
:101F000064207A3D25640A0058025802584D584D05
:101F1000B004F055F055B00478797A63616C5F666F
:101F2000696E645F6265645F696E64756374696F2E
:101F30006E5F73656E736F725F706F696E745F78DA
:101F40007920783D256C6420793D256C64207A3DAC
:101F5000256C640A00203C20005741524E494E47F0
:101F60003A2046726F6E7420706F696E74206E6FC7
:101F70007420726561636861626C652E205920630C
:101F80006F6F7264696E6174653A000000004041D1
:101F90000000C04000005C430000C04000005C4303
:101FA000000046430000404100004643497465720A
:101FB0006174696F6E3A200043616C69627261748A
:101FC000696F6E206661696C656421204368656392
:101FD0006B20746865206178657320616E6420727F
:101FE000756E20616761696E2E002563252E31357F
:101FF000533A2573253364002563252E3132533A35
:1020000025732500457872656D65207370616E20BB
:102010006F6620746865205A2076616C756573213F
:10202000006F6B0A0073746172740A004D4D553273
:10203000206669726D776172652076657273696F6B
:102040006E20696E76616C69642E205265717569C7
:102050007265642076657273696F6E3A2062756985
:102060006C64206E756D626572202564206F72202D
:102070006869676865722E004D4D55203D3E2027EA
:102080006F6B270A004D4D55203D3E20276F6B2773
:102090000A002564004D4D55203D3E20276F6B27DB
:1020A0002C20726573756D65207072696E740A00FC
:1020B0004D4D5520726574727920617474656D7030
:1020C00074206E722E2025640A004D4D55203D3E31
:1020D00020276F6B270A00410A004D4D55203C3DDB
:1020E000202741270A004D363030004D3630302051
:1020F0004155544F005052555341206673656E73DD
:102100006F725F7265636F7665720025686875002F
:10211000410A004D4D55203C3D202741270A0050E3
:10212000300A004D25640A004D4D55203C3D2027C6
:102130004D2564270A0057300A004D4D55203C3D7F
:1021400020275730270A0053330A004D4D55203CB5
:102150003D20275333270A0052300A004D4D5520A9
:102160003C3D20275230270A004B25640A004D4D84
:1021700055203C3D20274B2564270A004525640A4D
:10218000004D4D55203C3D2027452564270A00552C
:10219000300A004D4D55203C3D20275530270A0080
:1021A00043300A004D4D55203C3D20274330270A3F
:1021B000004C25640A004D4D55203C3D20274C2500
:1021C00064270A005425640A004D4D55203C3D20EB
:1021D00027542564270A004D4D55202D20454E419A
:1021E000424C454400256868750050300A004D3166
:1021F0000A004D4D55203C3D20274D3127005030E1
:102200000A004D4D552076657273696F6E207661B8
:102210006C6964004D4D55203D3E202725646F6B51
:10222000270A0025750053320A004D4D55203C3DCC
:102230002027533227004D4D55203D3E2027256451
:102240006F6B270A002575004D4D55206E6F742069
:10225000726573706F6E64696E67202D20444953F8
:1022600041424C45440053310A004D4D55203C3D00
:102270002027533127004D4D55203D3E20277374B4
:102280006172742700205B6F66665D0042656420A2
:102290006C6576656C696E67206661696C65642E35
:1022A0002053656E736F72206469646E742074725B
:1022B00069676765722E20446562726973206F6E6C
:1022C000206E6F7A7A6C653F2057616974696E671A
:1022D00020666F722072657365742E00506C6561A4
:1022E000736520757064617465206669726D7761CD
:1022F000726520696E20796F7572204D4D55322EB2
:102300002057616974696E6720666F722072657309
:1023100065742E0053657474696E67732053746F0F
:102320007265640053746F726564207365747469B8
:102330006E677320726574726965766564004861C2
:102340007264636F6465642044656661756C7420B3
:1023500053657474696E6773204C6F6164656400C3
:10236000563200000000C8420000C8420000C843C6
:1023700000008C43000048430000484300004041F7
:102380000000F042E8030000E8030000C80000007D
:102390008813000000409C4400409C440000000062
:1023A00000000000204E00000000204100002041FD
:1023B000CDCCCC3E0000204000000000000000001A
:1023C00000000000CDCCCC3E3D0A8141FF08433ED9
:1023D000B099AB438F42FC42E65A343F4C62B04561
:1023E00000000000004040000034420000000000F7
:1023F00000000000000041000000E03F0000C84273
:102400000000C842000040410000F042C00300004C
:10241000C0030000C800000088130000454550526A
:102420004F4D204572726F7200436F6E74696E7506
:1024300065207769746820616E6F746865722062C8
:102440006F7764656E3F002500202020202020004B
:102450002020202020200045524153494E47206132
:102460006C6C206461746100466163746F727920E2
:1024700052455345540000007F4300805443000000
:102480004A4300000000000080C09A99193E0000F5
:102490000000000080C09A99193E4B494C4C4544BD
:1024A0002E20005072696E7465722068616C7465CC
:1024B000642E206B696C6C28292063616C6C6564E8
:1024C00021004B494C4C3A2025640A004D313034F0
:1024D00020496E76616C69642065787472756465F4
:1024E0007220004D31303520496E76616C69642070
:1024F000657874727564657220004D3130392049F9
:102500006E76616C6964206578747275646572209A
:10251000004D32313820496E76616C6964206578EF
:1025200074727564657220004D32323120496E76C6
:10253000616C6964206578747275646572200055F9
:10254000564C4F202D20656E642025640A0073745C
:10255000707325640A00776F726C6420636F6F720A
:1025600064696E617465733A2028252E33662C20C9
:10257000252E33662C20252E3366290A00706879B3
:10258000736963616C20636F6F7264696E617465F7
:10259000733A2028252E33662C20252E33662C20D6
:1025A000252E3366290A0043757272656E74207099
:1025B0006F73205A5F415849533A252E33660A43B8
:1025C000757272656E7420706F7320455F41584953
:1025D000533A252E33660A0041667465722077618E
:1025E0006974696E6720666F722074656D703A0A4F
:1025F00043757272656E7420706F7320585F415816
:1026000049533A252E33660A43757272656E7420FB
:10261000706F7320595F415849533A252E33660A2B
:102620000020573A0020453A00543A005A206C697D
:1026300076652061646A757374206F7574206F66A7
:102640002072616E67652E2053657474696E672011
:10265000746F20302E20436C69636B20746F20638D
:102660006F6E74696E75652E005A206C69766520F0
:1026700061646A757374206F7574206F662072616F
:102680006E67652E2053657474696E6720746F20C1
:10269000300020423A0020453A00543A00494E5456
:1026A00034007265636F7665725F6D616368696E31
:1026B000655F73746174655F61667465725F706F86
:1026C0007765725F70616E69632C20696E697469E9
:1026D000616C20007265636F7665725F6D6163681F
:1026E000696E655F73746174655F61667465725F5E
:1026F000706F7765725F70616E69632C20696E69B7
:102700007469616C2000473932204500505255539E
:10271000412075766C6F004734205330004D3236BF
:102720002053256C75004D3130362053004D383222
:10273000004731204625640047312045322A646530
:102740006661756C745F72657472616374696F6ED3
:102750002046343830004731205A0020463230308D
:10276000300020590047312058004D383300506F59
:10277000736974696F6E20726561642066726F6D33
:1027800020656570726F6D3A004D323320257300FD
:102790002E67636F0046656564726174653A004731
:1027A0003120452D64656661756C745F7265747265
:1027B000616374696F6E20463438300047312045BC
:1027C000352046313230004D3833004D313930201C
:1027D000532564004D313039205325640047323889
:1027E00020582059004731205A32352046383030A1
:1027F000005265636F766572696E67207072696EEC
:1028000074202020200024F4D43050C38E20C2A293
:102810004017828B7011127A910D816CD90AA861D0
:10282000E108C7586607615143061E4B5D05C14567
:10283000A7041A411104093D980371393103403648
:10284000DB0265339102D4305402802E1D02632CCA
:10285000EE01752AC501B028A001102781018F253E
:1028600064012B244B01E0223401AC211F018D2097
:102870000D01801FFC00841EED00971DDF00B81CB9
:10288000D200E61BC600201BBC00641AB200B219BD
:10289000A8000A19A0006A189900D11791004017E2
:1028A0008B00B516840031167E00B31579003A15F9
:1028B0007300C7146F0058146A00EE136600881383
:1028C000630025135E00C7125B006C1257001512DF
:1028D0005400C111510070114F0021114B00D6104E
:1028E00049008D1047004610440002104200C00FFE
:1028F0004000800F3E00420F3C00060F3B00CB0E15
:102900003800930E37005C0E3500270E3400F30DAF
:102910003200C10D3100900D3000600D2E00320DDF
:102920002D00050D2C00D90C2B00AE0C2900850CB8
:1029300029005C0C2700350C27000E0C2600E80B44
:102940002400C40B2400A00B23007D0B23005A0B92
:102950002100390B2100180B2000F80A1F00D90AAA
:102960001E00BB0A1E009D0A1D00800A1D00630A8E
:102970001C00470A1B002C0A1B00110A1A00F70949
:102980001A00DD091900C4091900AB0919009209E0
:1029900017007B091800630917004C091600360957
:1029A0001600200916000A091500F5081500E008B0
:1029B0001400CC081400B8081400A40814009008EF
:1029C00013007D0812006B08130058081200460817
:1029D0001200340811002308110012081100010828
:1029E0001100F0071000E0071000D0071000C0072A
:1029F0001000B0070F00A107100091070E00830719
:102A00000F0074070F0065070E0057070E004907F7
:102A10000E003B070D002E070E0020070D001307C8
:102A20000D0006070D00F9060C00ED060D00E0068E
:102A30000C00D4060C00C8060C00BC060C00B00646
:102A40000C00A4060B0099060C008D060B008206F4
:102A50000B0077060B006C060B0061060A00570698
:102A60000B004C060A0042060A0038060A002E0631
:102A70000A0024060A001A060A00100609000706C2
:102A80000A00FD050900F4050900EB050900E2054F
:102A90000900D9050900D0050900C7050900BE05D0
:102AA0000900B5050800AD050800A50509009C054D
:102AB0000800940508008C050800840508007C05C2
:102AC0000800740508006C050700650508005D0531
:102AD0000700560508004E0507004705070040059A
:102AE000080038050700310507002A0507002305FF
:102AF00007001C050600160507000F05070008055E
:102B0000060002050700FB040600F5040700EE04BA
:102B10000600E8040600E2040700DB040600D50412
:102B20000600CF040600C9040600C3040600BD0465
:102B30000600B7040600B1040500AC040600A604B4
:102B40000600A00405009B040600950405009004FF
:102B500006008A04050085040500800406007A0446
:102B6000050075040500700405006B04050066048B
:102B70000500610405005C040500570405005204CB
:102B800005004D04050048040500430405003E040B
:102B900004003A04050035040500300404002C0448
:102BA000050027040400230405001E0404001A0481
:102BB000040016040500110404000D0404000904B7
:102BC00005000404040000040400FC030400F803EE
:102BD0000400F4030400F0030400EC030400E80321
:102BE0000400E4030400E0030400DC030400D80351
:102BF0000400D4030400D0030400CC030400C80381
:102C00000300C503030024F404D9201BC40C5C0E8C
:102C10009804C4095F0265077101F405F900FB041B
:102C2000B30048048700C10369005803550003033B
:102C30004500BE023A008402310053022A002902F4
:102C4000250004022000E4011C00C8011900AF01A6
:102C50001700980114008401130071011000610134
:102C6000100051010E0043010D0036010B002B0135
:102C70000B0020010B00150109000C0109000301E4
:102C80000800FB000800F3000800EB000700E40068
:102C90000600DE000600D8000600D2000600CC00C8
:102CA0000500C7000500C2000500BD000400B90012
:102CB0000400B5000400B1000400AD000400A90048
:102CC0000400A5000300A20003009F0004009B0075
:102CD0000300980003009500020093000300900099
:102CE00003008D0002008B000300880002008600B4
:102CF000020084000300810002007F0002007D00CA
:102D000002007B00020079000200770001007600DB
:102D100002007400020072000100710002006F00E6
:102D200002006D0001006C0002006A0001006900F1
:102D300002006700010066000100650001006400F8
:102D400002006200010061000100600001005F00FC
:102D500002005D0001005C0001005B0001005A0000
:102D60000100590001005800010057000100560001
:102D70000100550001005400010053000000530001
:102D800001005200010051000100500001004F00FD
:102D900001004E0000004E0001004D0001004C00FB
:102DA00001004B0000004B0001004A0001004900F7
:102DB00001004800000048000100470001004600F3
:102DC00000004600010045000000450001004400ED
:102DD00001004300000043000100420000004200E7
:102DE00001004100000041000100400001003F00DF
:102DF00000003F0001003E0000003E0001003D00D9
:102E000000003D0001003C0000003C0000003C00D0
:102E100001003B0000003B0001003A0000003A00C6
:102E200001003900000039000100380000003800BE
:102E300000003800010037000000370001003600B4
:102E400000003600000036000100350000003500AB
:102E500000003500010034000000340000003400A0
:102E60000100330000003300000033000100320095
:102E7000000032000000320001003100000031008B
:102E80000000310001003000000030000000300080
:102E900001002F0000002F0000002F0000002F0075
:102EA00001002E0000002E0000002E0001002D0069
:102EB00000002D0000002D0000002D0001002C005E
:102EC00000002C0000002C0000002C0001002B0052
:102ED00000002B0000002B0000002B0001002A0046
:102EE00000002A0000002A0000002A00010029003A
:102EF000000029000000290000002900000029002E
:102F00000100280000002800000028000000280020
:102F10000000280001002700000027000000270013
:102F20000000270000002700010026000000260006
:102F300000002600000026000000260001002500F9
:102F400000002500000025000000250000002500ED
:102F500000002500010024000000240000002400DF
:102F600000002400000024000100230000002300D2
:102F700000002300000023000000230000002300C5
:102F800000002300010022000000220000002200B7
:102F900000002200000022000000220001002100A9
:102FA000000021000000210000002100000021009D
:102FB000000021000000210001002000000020008E
:102FC0000000200000002000000020000000200081
:102FD000000020000000200001001F0000001F0072
:102FE00000001F0000001F0000001F0000001F0065
:102FF00000001F0001001E0000001E0000001E0057
:1030000000001E0000004D373032004D37303100D7
:103010004D373032004D37303100464C4558202D69
:1030200020203234302F35300050502020202D20E9
:10303000203235342F3130300048495053202D2074
:10304000203232302F3130300041425320202D20A9
:10305000203235352F3130300050455420202D207E
:10306000203233302F383500504C4120202D202085
:103070003231352F363000457874727564657200D0
:103080006D6D000059005800580059005A00256322
:10309000252E3132533A2573252B30362E336600D8
:1030A000746F20756E6C6F61642066696C616D650C
:1030B0006E7400746F206C6F61642066696C616D62
:1030C000656E7400507265737320746865206B6E52
:1030D0006F62003E43616E63656C005072656865A7
:1030E0006174696E6720746F206375740050726537
:1030F00068656174696E6720746F20656A656374C2
:103100000050726568656174696E6720746F207520
:103110006E6C6F61640050726568656174696E679A
:1031200020746F206C6F6164005072656865617413
:1031300020746865206E6F7A7A6C65210045525262
:103140004F523A0046696C616D656E742065787403
:10315000727564696E672026207769746820636FD2
:10316000727265637420636F6C6F723F0041757497
:103170006F6C6F6164696E672066696C616D656E06
:1031800074206973206163746976652C206A757395
:103190007420707265737320746865206B6E6F6243
:1031A00020616E6420696E736572742066696C615B
:1031B0006D656E742E2E2E00546F74616C207072CB
:1031C000696E742074696D6500546F74616C20665B
:1031D000696C616D656E74005072696E74207469FB
:1031E0006D650046696C616D656E7420757365640C
:1031F000005269676874004C656674005920646900
:103200007374616E63652066726F6D206D696E0008
:1032100053657665726520736B657700536C6967DB
:10322000687420736B6577004D65617375726564B2
:1032300020736B6577005B303B305D20706F696E8B
:1032400074206F66667365740041646A757374698F
:103250006E67205A00526573657400526561722072
:1032600073696465205B756D5D0046726F6E7420D6
:10327000736964655B756D5D00526967687420737E
:103280006964655B756D5D004C6566742073696487
:1032900065205B756D5D005365742074656D7065A8
:1032A0007261747572653A001B5B324A2553203A8D
:1032B0001B5B313B394825382E3266206D0A255379
:1032C000203A0A25376C6464203A253268686468BD
:1032D000203A253032686864206D001B5B324A2535
:1032E000533A1B5B313B364825382E32666D200A37
:1032F0002553203A1B5B333B384825326468202530
:103300003032646D2025303264730025362E3266EB
:103310006D6D004E2F41001B5B303B304825533A0A
:103320000A25530A25533A0A25533A001B5B303BC2
:103330003135484E2F41001B5B303B313548253439
:103340002E326601001B5B303B304825533A0A257C
:10335000530A25533A202025352E3266010A25537B
:103360003A202025352E32660100537570706F7239
:1033700074004661696C207374617473204D4D55FF
:10338000004661696C2073746174730053746174D6
:1033900069737469637320200043616C69627261B0
:1033A00074696F6E004175746F4C6F61642066695B
:1033B0006C616D656E7400456A6563742066696C46
:1033C000616D656E7400556E6C6F61642066696C2A
:1033D000616D656E74004C6F616420746F206E6F58
:1033E0007A7A6C65004C6F61642066696C616D650A
:1033F0006E74004E6F2053442063617264005072FB
:10340000696E742066726F6D205344005265737547
:103410006D65207072696E740050617573652070FF
:1034200072696E7400507265686561740054756EDF
:1034300065004C6976652061646A757374205A0072
:10344000496E666F2073637265656E0046696E69CA
:103450007368696E67206D6F76656D656E74730055
:10346000536F756E642020202020205B6C6F756484
:103470005D00536F756E642020202020205B6D75E9
:1034800074655D00536F756E64202020205B736946
:103490006C656E745D00536F756E64202020202073
:1034A000205B6F6E63655D00536F756E6420202036
:1034B0002020205B6C6F75645D004D4D55204D6F75
:1034C00064655B537465616C74685D004D4D552097
:1034D0004D6F6465205B4E6F726D616C5D00437271
:1034E000617368206465742E20205B4E2F415D005F
:1034F0004372617368206465742E2020205B6F6EB8
:103500005D004372617368206465742E20205B6FD8
:1035100066665D004D6F6465202020205B537465F6
:10352000616C74685D004D6F646520202020205B15
:103530004E6F726D616C5D0046696C2E2073656E16
:10354000736F7220205B6F6E5D0046696C2E207376
:10355000656E736F72205B6F66665D004368616EB7
:1035600067652066696C616D656E7400466C6F7787
:10357000005370656564004D61676E657473206308
:103580006F6D702E5B4E2F415D004D61676E6574EF
:103590007320636F6D702E5B4F66665D004D6167D3
:1035A0006E65747320636F6D702E205B4F6E5D00CF
:1035B0005A2D70726F6265206E722E202020205B63
:1035C000335D005A2D70726F6265206E722E20205E
:1035D00020205B355D005A2D70726F6265206E721F
:1035E0002E202020205B315D004D65736820202057
:1035F0002020202020205B3778375D004D657368E0
:103600002020202020202020205B3378335D0046BE
:10361000616E20737065656400426564004E6F7A68
:103620007A6C650053657474696E677300507269D3
:103630006E742061626F7274656400596573004E28
:103640006F0053746F70207072696E740046696CFD
:103650006520696E636F6D706C6574652E20436FB5
:103660006E74696E756520616E797761793F00428D
:1036700061636B004D61696E004661726D206E750D
:103680006D626572004D363030004D3234004D327F
:103690003320257300052E2E00544D4320445249FB
:1036A000564552204F56455254454D5000256325EE
:1036B00033642F25642563005A25362E3266200098
:1036C0005A2020202D2D2D2000256325336425250B
:1036D000002D2D2D002533686864002533532533D4
:1036E000732525002053440020202000555342001C
:1036F0002025753E257500203F3E25750020462576
:10370000750020463F0020463020200025632D2DE7
:103710003A2D2D202000256325337568202563254B
:1037200063002563253032753A25303275256325CF
:103730006300726573756C742076616C75653A20F0
:1037400025640A0020693D25326420636E743D259E
:1037500032642076616C3D2532640A00636C7573B7
:10376000746572733A0A0020693D253264207374CF
:1037700065703D2532640A00736F7274656420734E
:10378000616D706C65733A0A005553415254322092
:1037900072782046756C6C2121210A003A200020A5
:1037A0002020202020202020202020202020202019
:1037B000202000203A20002020202020202020202F
:1037C0002020202020202020202020002020202019
:1037D0002020202020202020200025730050494E4A
:1037E00044412048656174696E670054656D702EB0
:1037F0002063616C2E20202020202020202020000B
:1038000043616C6962726174696F6E20646F6E658A
:103810000043616C6962726174696E67205A00428C
:10382000656420646F6E650042656420486561745C
:10383000696E670048656174696E6720646F6E65C4
:103840002E0048656174696E670050726568656135
:1038500074696E67206E6F7A7A6C652E20506C6585
:1038600061736520776169742E00456A6563740031
:10387000556E6C6F61640055736520756E6C6F6179
:103880006420746F2072656D6F76652066696C6167
:103890006D656E7420312069662069742070726FC6
:1038A000747275646573206F757473696465206FD5
:1038B00066207468652072656172204D4D552074D4
:1038C0007562652E2055736520656A65637420698D
:1038D000662069742069732068696464656E206974
:1038E0006E20747562652E004C6F6164696E67208E
:1038F00066696C616D656E7400506C6561736520FE
:10390000696E7365727420504C412066696C616DFC
:10391000656E7420746F20746865206578747275A4
:103920006465722C207468656E20707265737320F4
:103930006B6E6F6220746F206C6F61642069742EEF
:1039400000506C6561736520696E736572742050F8
:103950004C412066696C616D656E7420746F2074D3
:1039600068652066697273742074756265206F667D
:10397000204D4D552C207468656E207072657373F0
:1039800020746865206B6E6F6220746F206C6F61AD
:10399000642069742E00596F752063616E20616C1C
:1039A0007761797320726573756D65207468652021
:1039B00057697A6172642066726F6D2043616C6929
:1039C00062726174696F6E202D3E2057697A617250
:1039D000642E00506C6561736520636865636B20BD
:1039E0006F75722068616E64626F6F6B20616E64C8
:1039F00020666978207468652070726F626C656DEE
:103A00002E205468656E20726573756D652074682C
:103A1000652057697A617264206279207265626FED
:103A20006F74696E6720746865207072696E746562
:103A3000722E00416C6C20697320646F6E652E20BD
:103A40004861707079207072696E74696E672100C8
:103A5000506C6561736520636C65616E206865619B
:103A60007462656420616E64207468656E20707293
:103A700065737320746865206B6E6F622E00446FEF
:103A800020796F752077616E7420746F2072657075
:103A9000656174206C617374207374657020746F39
:103AA00020726561646A7573742064697374616EF1
:103AB0006365206265747765656E206E6F7A7A6CD7
:103AC0006520616E6420686561746265643F0049C9
:103AD0002077696C6C20737461727420746F20702D
:103AE00072696E74206C696E6520616E6420796FF6
:103AF000752077696C6C206772616475616C6C7994
:103B0000206C6F77657220746865206E6F7A7A6CAE
:103B10006520627920726F746174696E67207468C1
:103B200065206B6E6F622C20756E74696C20796FE6
:103B300075207265616368206F7074696D616C20B7
:103B40006865696768742E20436865636B207468D4
:103B50006520706963747572657320696E206F7576
:103B6000722068616E64626F6F6B20696E2063689B
:103B700061707465722043616C6962726174696F0F
:103B80006E2E004E6F7720492077696C6C20636140
:103B90006C6962726174652064697374616E6365D7
:103BA000206265747765656E20746970206F662089
:103BB000746865206E6F7A7A6C6520616E64206827
:103BC00065617462656420737572666163652E0059
:103BD000497320697420504C412066696C616D65A1
:103BE0006E743F0053656C656374206E6F7A7A6CF7
:103BF0006520707265686561742074656D706572AA
:103C00006174757265207768696368206D6174639B
:103C100068657320796F7572206D61746572696172
:103C20006C2E004E6F7720492077696C6C20707283
:103C30006568656174206E6F7A7A6C6520666F7254
:103C400020504C412E0049732066696C616D656E91
:103C500074206C6F616465643F0049732066696C11
:103C6000616D656E742031206C6F616465643F0026
:103C70004E6F7720492077696C6C2070726568659B
:103C80006174206E6F7A7A6C6520666F7220504C7A
:103C9000412E00492077696C6C2072756E207A2065
:103CA00063616C6962726174696F6E206E6F772EEA
:103CB000004E6F772072656D6F76652074686520A1
:103CC00074657374207072696E742066726F6D20F3
:103CD000737465656C2073686565742E00506C653F
:103CE0006173652072656D6F7665207368697070A9
:103CF000696E672068656C7065727320666972739F
:103D0000742E00492077696C6C2072756E2078796A
:103D10007A2063616C6962726174696F6E206E6F84
:103D2000772E2049742077696C6C2074616B652054
:103D3000617070726F782E203132206D696E732E33
:103D40000046697273742C20492077696C6C20726C
:103D5000756E207468652073656C66746573742075
:103D6000746F20636865636B206D6F737420636F7D
:103D70006D6D6F6E20617373656D626C792070720A
:103D80006F626C656D732E0048692C204920616D4F
:103D900020796F7572204F726967696E616C20506F
:103DA00072757361206933207072696E7465722E4A
:103DB00020576F756C6420796F75206C696B652076
:103DC0006D6520746F20677569646520796F752053
:103DD0007468726F756768207468652073657475A0
:103DE000702070726F636573733F00452D636F724F
:103DF00072656374005A2D636F7272656374005943
:103E00002D636F727265637400582D636F727265F3
:103E100063740053706F6F6C4A6F696E2020205B73
:103E20004E2F415D0053706F6F6C4A6F696E20209A
:103E3000205B6F66665D0053706F6F6C4A6F696ED2
:103E4000202020205B6F6E5D00536F756E64202014
:103E5000202020205B6C6F75645D00536F756E646D
:103E60002020202020205B6D7574655D00536F75E8
:103E70006E64202020205B73696C656E745D005356
:103E80006F756E642020202020205B6F6E63655D5F
:103E900000536F756E642020202020205B6C6F75AE
:103EA000645D00536F7274202020202020205B6E00
:103EB0006F6E655D00536F72742020205B616C70C3
:103EC00068616265745D00536F7274202020202049
:103ED00020205B74696D655D0053442063617264EA
:103EE00020205B6E6F726D616C5D005344206361D6
:103EF0007264205B666C73684169725D0052506940
:103F000020706F727420202020205B6F6E5D005245
:103F1000506920706F7274202020205B6F66665D90
:103F20000054656D702E2063616C2E2020205B6F25
:103F30006E5D0054656D702E2063616C2E20205BD9
:103F40006F66665D004C696E2E20636F72726563EA
:103F500074696F6E004D65736820626564206C65DE
:103F600076656C696E67004D4D55204D6F64655BDD
:103F7000537465616C74685D004D4D55204D6F64E0
:103F800065205B4E6F726D616C5D0046616E7320E3
:103F9000636865636B20205B6F66665D0046616EDB
:103FA0007320636865636B2020205B6F6E5D004645
:103FB0002E206175746F6C6F6164205B6F66665D47
:103FC00000462E206175746F6C6F616420205B6FFA
:103FD0006E5D00462E206175746F6C6F6164205BAE
:103FE0004E2F415D0044697361626C652073746596
:103FF0007070657273004D6F76652061786973002B
:1040000054656D70657261747572650054656D708C
:104010002E2063616C6962726174696F6E00526513
:104020007365742058595A2063616C6962722E005E
:104030005049442063616C6962726174696F6E00FB
:10404000426564206C6576656C20636F727265638F
:1040500074004D65736820426564204C6576656C1C
:10406000696E670043616C696272617465205A0011
:1040700043616C6962726174652058595A005365D6
:104080006C6674657374202020202020202020007E
:104090004669727374206C617965722063616C2E5D
:1040A0000057697A617264004C6F61642066696CC4
:1040B000616D656E742035004C6F61642066696CBB
:1040C000616D656E742034004C6F61642066696CAC
:1040D000616D656E742033004C6F61642066696C9D
:1040E000616D656E742032004C6F61642066696C8E
:1040F000616D656E742031004C6F616420616C6C81
:10410000004C6F61642066696C616D656E7420356A
:10411000004C6F61642066696C616D656E7420345B
:10412000004C6F61642066696C616D656E7420334C
:10413000004C6F61642066696C616D656E7420323D
:10414000004C6F61642066696C616D656E7420312E
:1041500000456A6563742066696C616D656E7420E4
:104160003500456A6563742066696C616D656E74BF
:10417000203400456A6563742066696C616D656E04
:1041800074203300456A6563742066696C616D65EF
:104190006E74203200456A6563742066696C616DD7
:1041A000656E74203100506C656173652070756CAC
:1041B0006C206F75742066696C616D656E74206922
:1041C0006D6D6564696174656C7900556E6C6F61C5
:1041D00064696E672066696C616D656E7400526516
:1041E00073756D696E67207072696E740057697AB5
:1041F00061726420656E642073746174653A202571
:10420000640A0057697A6172642073746174653A54
:104210002025640044697361626C65206661726D7B
:10422000206D6F6465004661726D206E756D62650C
:1042300072004D3834004D34340047323820570076
:104240004739390044697361626C65206661726D3B
:10425000206D6F64653F0043686F6F736520636F07
:104260006C6F723A002046004731205A0020460009
:1042700047312045004D383300627573793A20701C
:10428000617573656420666F7220696E7075740065
:10429000627573793A2070617573656420666F7218
:1042A000207573657200627573793A2070726F635E
:1042B000657373696E67006F6B0A0000002110421E
:1042C0002063308440A550C660E770088129914A78
:1042D000A16BB18CC1ADD1CEE1EFF13112100273FF
:1042E000325222B5529442F772D662399318837BC8
:1042F000B35AA3BDD39CC3FFF3DEE362244334204F
:10430000040114E664C774A44485546AA54BB52817
:10431000850995EEE5CFF5ACC58DD55336722611DE
:10432000163006D776F6669556B4465BB77AA71967
:10433000973887DFF7FEE79DD7BCC7C448E55886A6
:1043400068A7784008611802282338CCC9EDD98EB7
:10435000E9AFF9488969990AA92BB9F55AD44AB73E
:104360007A966A711A500A333A122AFDDBDCCBBF07
:10437000FB9EEB799B588B3BBB1AABA66C877CE40E
:104380004CC55C222C033C600C411CAEED8FFDEC57
:10439000CDCDDD2AAD0BBD688D499D977EB66ED51E
:1043A0005EF44E133E322E511E700E9FFFBEEFDDA7
:1043B000DFFCCF1BBF3AAF599F788F8891A981CA84
:1043C000B1EBA10CD12DC14EF16FE18010A100C263
:1043D00030E3200450254046706760B9839893FB12
:1043E000A3DAB33DC31CD37FE35EF3B1029012F3B3
:1043F00022D2323542145277625672EAB5CBA5A862
:104400009589856EF54FE52CD50DC5E234C324A002
:104410001481046674476424540544DBA7FAB799F1
:1044200087B8975FE77EF71DC73CD7D326F2369152
:1044300006B01657667676154634564CD96DC90EB9
:10444000F92FE9C899E9898AB9ABA94458654806A2
:10445000782768C018E1088238A3287DCB5CDB3F51
:10446000EB1EFBF98BD89BBBAB9ABB754A545A37F2
:104470006A167AF10AD01AB32A923A2EFD0FED6C21
:10448000DD4DCDAABD8BADE89DC98D267C076C6442
:104490005C454CA23C832CE01CC10C1FEF3EFF5D31
:1044A000CF7CDF9BAFBABFD98FF89F176E367E5592
:1044B0004E745E932EB23ED10EF01E7C3C3E5E2BBF
:1044C0003D3F2F5B5D3B2C2A225C0020003E003EDE
:1044D0000020003E003E0054656D70657261747589
:1044E00072652063616C6962726174696F6E2066C7
:1044F00061696C65642E20436F6E74696E7565200A
:1045000077697468207072657373696E6720746868
:1045100065206B6E6F622E0054656D7065726174FC
:104520007572652063616C6962726174696F6E2077
:10453000646F6E652E20436F6E74696E75652077AB
:10454000697468207072657373696E67207468653A
:10455000206B6E6F622E00473830004D3435004DB1
:104560003435205A004737360054656D70657261E6
:10457000747572652063616C6962726174696F6ED3
:10458000206661696C65640054656D706572617464
:104590007572652063616C6962726174696F6E2007
:1045A00069732066696E697368656420616E642052
:1045B0006163746976652E2054656D702E20636189
:1045C0006C6962726174696F6E2063616E206265EE
:1045D0002064697361626C656420696E206D656E2C
:1045E000752053657474696E67732D3E54656D70E4
:1045F0002E2063616C2E004E2F41002020300020C1
:1046000020310049523A0046494E44413A0050494F
:104610004E44413A0053656E736F72207374617437
:1046200065004578747275646572004D6F7665201B
:104630005A004D6F76652059004D6F766520580001
:104640001B5B324A437261736820646574656374EE
:10465000696F6E2063616E1B5B313B304862652081
:104660007475726E6564206F6E206F6E6C79206950
:104670006E1B5B323B30484E6F726D616C206D6F0C
:104680006465001B5B324A5741524E494E473A1B04
:104690005B313B30484372617368206465746563C5
:1046A00074696F6E1B5B323B304864697361626C86
:1046B000656420696E1B5B333B3048537465616CE5
:1046C0007468206D6F6465004175746F6C6F616410
:1046D000696E672066696C616D656E7420617661D4
:1046E000696C61626C65206F6E6C79207768656EAD
:1046F0002066696C616D656E742073656E736F7290
:10470000206973207475726E6564206F6E2E2E2E74
:10471000004552524F523A2046696C616D656E7485
:104720002073656E736F72206973206E6F742072D0
:104730006573706F6E64696E672C20706C65617351
:104740006520636865636B20636F6E6E6563746973
:104750006F6E2E004D6F6465206368616E67652023
:10476000696E2070726F6772657373202E2E2E0033
:1047700043616C69627261746500506C6561736558
:10478000206C6F616420504C412066696C616D65DE
:104790006E742066697273742E00497320504C4108
:1047A0002066696C616D656E74206C6F6164656410
:1047B0003F0043616E63656C0046696C616D656EB8
:1047C000740053656C65637420504C412066696CBD
:1047D000616D656E743A0052756E6E696E67205732
:1047E000697A6172642077696C6C2064656C6574A9
:1047F000652063757272656E742063616C696272A4
:104800006174696F6E20726573756C747320616E6C
:10481000642073746172742066726F6D20746865B1
:1048200020626567696E6E696E672E20436F6E74D5
:10483000696E75653F0043757272656E74005573DD
:10484000656420647572696E67207072696E7400A9
:104850005049442063616C2E2066696E69736865F7
:1048600064005049442063616C2E202020202020C9
:10487000202020202000506C6561736520776169DD
:1048800074004D313137204669727374206C617940
:1048900065722063616C2E005072696E74207061C5
:1048A0007573656400496E76616C69642050494493
:1048B0002063616C2E20726573756C74732E204EAC
:1048C0006F742073746F72656420746F2045455057
:1048D000524F4D2E004D353030004731205A313582
:1048E00020463135303000473931004731205835C6
:1048F00030205931393020453020463730303000B3
:10490000473930004D373032004D373032204300C8
:104910004D3730322055004D373032004D37303270
:104920002043004731205A313520463135303000A0
:10493000473931004731205835302059313930203E
:104940004530204637303030004D3833004739305D
:10495000004D3834004D313034205330004D383460
:10496000004D373032204300473120583130205934
:10497000313830204634303030004731205A313021
:104980002046313330302E303030004D313430203D
:104990005330004D31303420533000473120452D05
:1049A000302E30373530302046323130302E3030F6
:1049B000303030004D31303700473120583530200D
:1049C0005935352045332E363237373300473120BD
:1049D00058323030205935352045302E343933386F
:1049E0003600473120583230302059373520453392
:1049F0002E3632373733004731205835302059377B
:104A0000352045302E34393338360047312058357B
:104A100030205939352045332E3632373733004769
:104A2000312058323030205939352045302E343934
:104A30003338360047312058323030205931313543
:104A40002045332E36323737330047312058353042
:104A500020593131352045302E343933383600472E
:104A6000312058353020593133352045332E3632F8
:104A70003737330047312058323030205931333501
:104A80002045302E36363137340047312058323009
:104A90003020593135352045322E36323737330004
:104AA00047312058313030205931353520453200DA
:104AB00047312058373520593135352045322E358C
:104AC000004731204631303830004731205A302EEF
:104AD0003135302046373230302E303030004731DB
:104AE0002058353020593135350047312046343093
:104AF0003030004D323034205331303030004731C7
:104B0000205A352046373230302E30303000473191
:104B100020452D312E353030303020463231303086
:104B20002E3030303030004D3833004739300047B8
:104B30003231004739322045302E3000473120587D
:104B40003130302E30204531322E35204631303054
:104B5000302E30004731205836302E302045392E47
:104B6000302046313030302E300047312058352E3D
:104B7000302045342E302046313030302E30004742
:104B800031205A302E32302046313030302E300035
:104B90004731205835352E302045323520463134C6
:104BA00030302E3000473120592D322E3020463102
:104BB0003030302E3000473120583234302E302003
:104BC0004532352E30202046323230302E300047EC
:104BD00039322045302E30004731205A302E3320D4
:104BE00046313030302E30004731205835352E30A8
:104BF0002045382E302046323030302E30004731BC
:104C00002058352E30204533322E30204631383072
:104C1000302E30004731205835352E302045333284
:104C20002E302046313037332E30004731205A3075
:104C30002E342046313030302E3000473120592D6F
:104C4000332E302046313030302E30004D38330096
:104C50004739322045302E3000473238004D313050
:104C6000392053323135004D313930205336300040
:104C70004D31343020533630004D313034205332F2
:104C80003135004D31303700534420636172642068
:104C90006F6B006F70656E526F6F74206661696C28
:104CA000656400766F6C756D652E696E697420663B
:104CB00061696C656400534420696E6974206661A3
:104CC000696C0057726974696E6720746F20666939
:104CD0006C653A200046696C652073656C65637489
:104CE0006564002053697A653A200046696C652046
:104CF0006F70656E65643A20006F70656E20666146
:104D0000696C65642C2046696C653A20001F1F1F82
:104D10001F1F1F1F1F2E002E004E6F77206672650B
:104D200073682066696C653A20004E6F7720646F67
:104D3000696E672066696C653A20002220706F7387
:104D4000002220706172656E743A220053554252FF
:104D50004F5554494E452043414C4C207461726775
:104D600065743A2200747279696E6720746F2063EB
:104D7000616C6C207375622D67636F646520666972
:104D80006C6573207769746820746F6F206D616E35
:104D900079206C6576656C732E204D4158206C65CA
:104DA00076656C2069733A002E00536F7274696ED9
:104DB000672066696C657300536F6D652066696C6A
:104DC00065732077696C6C206E6F74206265207348
:104DD0006F727465642E204D61782E204E6F2E20E8
:104DE0006F662066696C657320696E203120666F7E
:104DF0006C64657220666F7220736F7274696E677F
:104E0000206973203130302E001000C90210012CAF
:104E1000014001220170011801B0010E01F00104EE
:104E2000015002FA00B002F0003003E600D003DCCB
:104E3000009004D2007005C800A006BE000008B4AF
:104E400000B009AA00D00BA000600E960060118C83
:104E5000000015820020197800C01D6E00A0226499
:104E600000B0275A00902C500000314600E0343C3E
:104E70000010383200903A2800603C1E00A03D141B
:104E800000803E0A00203F000070012C01900127A5
:104E900001B0012201C0011D01F00118011002132F
:104EA0000130020E016002090190020401C002FFFC
:104EB000000003FA004003F5008003F000D003EB8C
:104EC000002004E6007004E100E004DC004005D7A7
:104ED00000C005D2004006CD00D006C8008007C340
:104EE000003008BE00F008B900C009B400B00AAF35
:104EF00000B00BAA00D00CA500000EA000500F9B24
:104F000000C01096005012910000148C00C015874C
:104F100000B0178200B0197D00D01B7800001E730E
:104F20000040206E0090226900F024640040275F5A
:104F30000090295A00E02B5500102E500020304BD5
:104F40000010324600E033410090353C0010373706
:104F50000070383200A0392D00B03A2800A03B2361
:104F600000603C1E00103D1900903D1400103E0FE3
:104F700000703E0A00C03E0500003F000090137D17
:104F800000B0157800F0177300601A6E00F01C690D
:104F900000A01F640050225F0020255A00E0275522
:104FA00000902A5000202D4B00A02F4600F03141E8
:104FB0000010343C00F0353700A037320020392D86
:104FC00000603A2800703B2300603C1E00203D1921
:104FD00000C03D1400403E0F00A03E0A00F03E0518
:104FE00000403F0000703FFBFF903FF6FFB03FF1F5
:104FF000FFC03FECFFD03FE7FFE03FE2FFF03FDDC7
:10500000FFF03FD8FF20484F54454E4420544845B8
:10501000524D414C2052554E415741590020484570
:10502000415442454420544845524D414C2052552C
:105030004E4157415900544845524D414C2052551C
:105040004E415741590042454420544845524D4134
:105050004C2052554E415741590020544845524D1D
:10506000414C2052554E415741592028205052451D
:105070004845415420484F54454E44290020544847
:1050800045524D414C2052554E4157415920282000
:1050900050524548454154204845415442454429D1
:1050A0000050524548454154204552524F5200420B
:1050B00045442050524548454154204552524F5294
:1050C000004572723A204D494E54454D502042459C
:1050D000440054656D706572617475726520686511
:1050E00061746564206265642073776974636865C0
:1050F00064206F66662E204D494E54454D502074F5
:1051000072696767657265642021004572723A2092
:105110004D494E54454D50003A204578747275649F
:105120006572207377697463686564206F66662EA4
:10513000204D494E54454D50207472696767657221
:105140006564202100746D63323133305F686F6DA8
:10515000655F656E74657228617865735F6D6173F4
:105160006B3D307825303278290A00746D63323116
:1051700033305F686F6D655F6578697420746D6347
:10518000323133305F73675F686F6D696E675F617F
:105190007865735F6D61736B3D3078253032780AC6
:1051A00000773235783230636C5F63666D0A007762
:1051B0003235783230636C5F656E7465720A002038
:1051C000746F6F206C6F6E67206578747275736989
:1051D0006F6E2070726576656E7465640020636F13
:1051E0006C6420657874727573696F6E2070726577
:1051F00076656E7465640046696C616D656E7420D9
:1052000073656E736F7200537761707065640046EA
:10521000726F6E742F6C6566742066616E730041E8
:105220007869730041786973206C656E67746800F3
:105230004C6F6F73652070756C6C657900456E649A
:1052400073746F70206E6F742068697400456E64AB
:1052500073746F70004D6F746F7200456E64737479
:105260006F707300576972696E67206572726F7232
:1052700000426564202F20486561746572004E6F9E
:105280007420636F6E6E6563746564004865617455
:1052900065722F546865726D6973746F7200506C1B
:1052A0006561736520636865636B203A0053656CC4
:1052B0006674657374206572726F7220210046698E
:1052C0006C616D656E742073656E736F723A005019
:1052D00072696E742066616E3A0045787472756406
:1052E00065722066616E3A0043616C696272617436
:1052F000696E6720686F6D650053656C66746573D1
:1053000074206661696C6564202000416C6C2063C8
:105310006F7272656374202020202020004368652E
:10532000636B696E672073656E736F7273200043E1
:105330006865636B696E6720686F74656E642020B2
:1053400000436865636B696E672062656420202096
:10535000202000436865636B696E67205A2061787E
:105360006973202000436865636B696E672059206C
:1053700061786973202000436865636B696E6720FC
:10538000582061786973202000436865636B696EFB
:105390006720656E6473746F7073004572726F720C
:1053A000202D20737461746963206D656D6F72794F
:1053B00020686173206265656E206F766572777212
:1053C000697474656E00436172642072656D6F76F6
:1053D0006564002D2D2D2D2D2D2D2D2D2D2D2D2DBB
:1053E0002D2D2D2D2D2D2D000000000000110A0463
:1053F000505255534133444657002079303D25647F
:105400000A002078303D25640A004F4B0A004552BF
:10541000524F522061643D25640A002020207A30DA
:105420003D25640A00207A303D25640A0020793049
:105430003D25640A002078303D25640A0078797A99
:1054400063616C5F66696E645F706F696E745F63E1
:10545000656E746572320A0022206661696C65644B
:105460003A204275666665722066756C6C21002272
:1054700000256920686F757273202569206D696E3B
:10548000757465730054494D454F55543A004D317C
:1054900031300046756C6C20525820427566666546
:1054A0007200656E717565696E67202200446F6ECB
:1054B00065207072696E74696E672066696C65003C
:1054C0005072696E7465722073746F7070656420B9
:1054D00064756520746F206572726F72732E20463A
:1054E000697820746865206572726F7220616E64DD
:1054F00020757365204D39393920746F20726573BA
:10550000746172742E202854656D706572617475B3
:1055100072652069732072657365742E20536574FB
:10552000206974206166746572207265737461729B
:1055300074696E6729004E6F204C696E65204E7548
:105540006D626572207769746820636865636B7348
:10555000756D2C204C617374204C696E653A200087
:105560004E6F20436865636B73756D20776974684F
:10557000206C696E65206E756D6265722C204C61C1
:105580007374204C696E653A2000636865636B73C1
:10559000756D206D69736D617463682C204C617347
:1055A00074204C696E653A20004C696E65204E751A
:1055B0006D626572206973206E6F74204C61737424
:1055C000204C696E65204E756D6265722B312C2002
:1055D0004C617374204C696E653A200053544F50EF
:1055E0005045442E200057616974696E6720666FCC
:1055F00072206E6F7A7A6C6520616E6420626564D9
:1056000020636F6F6C696E670053656C662074650C
:105610007374204F4B0053656C662074657374205F
:105620007374617274202000457874722066616E14
:105630002073706565643A202564200A0050726901
:105640006E742066616E2073706565643A2025640F
:10565000200A005465737420323A0A004578747247
:105660002066616E2073706565643A202564200AA7
:10567000005072696E742066616E20737065656497
:105680003A202564200A005465737420313A0A00D8
:105690006C63645F73656C66636865636B5F617898
:1056A00069732025642C2025640A004D3834004796
:1056B00031205A31352046313030300047323820E1
:1056C000570025632041584953205347313D2564F5
:1056D0000A0041786973206C656E6774682064699C
:1056E00066666572656E63653A252E33660A004DFF
:1056F000656173757265642061786973206C656E8D
:105700006774683A252E33660A006673656E736F98
:10571000725F73746F705F616E645F736176655FF3
:105720007072696E740A00000E1315110E000000ED
:1057300004120912040000001C1F11111F000000B8
:1057400006191803130C00040E1F041C00000004AB
:105750000A0A0A0A11110E001F1511151F00000078
:105760000103161C0800000000110A04110A040CB1
:1057700012120C000000002563252D3138532563DB
:10578000006572726F723A20756E6B6E6F776E2065
:105790006D6F76650A006E6F206D6F76650A005436
:1057A0002D636F64650A00756E6C6F61640A006C2E
:1057B0006F61640A006D6D755F6765745F72657314
:1057C000706F6E7365202D20626567696E206D6F46
:1057D00076653A20006D6D755F6765745F726573FD
:1057E000706F6E736528292072657475726E696EAC
:1057F000673A2025640A00556E6C6F6164696E67B4
:105800002066696E697368656420320A00556E6CA3
:105810006F616420320A00556E6C6F6164696E6757
:105820002066696E697368656420310A00556E6C84
:105830006F616420310A004D4D552073746172749C
:105840007320726573706F6E64696E670A004D4DE8
:1058500055206E6F7420726573706F6E64696E6729
:105860000A000000803F555585410000803F000040
:10587000C84100000040555505420000C03F0000EF
:1058800048420000204055558542000070C1ABAA37
:10589000A642000060C10000A0410000C0C000009E
:1058A000204100002041ABAA3A41000020C15555DB
:1058B000D540000048C2555505424D37303120458E
:1058C00030004D373031204531004D3730312045E3
:1058D00032004D373031204533004D3730312045CF
:1058E00034004D373031204534004D3730312045BC
:1058F00033004D373031204532004D3730312045AF
:1059000031004D3730312045300046696C616D659E
:105910006E74206E72206F7574206F662072616ED7
:10592000676521004164646974696F6E616C206C05
:105930006F616420617474656D7074206E722E20C6
:1059400025640A004D4D55204F4B2E20526573752E
:105950006D696E672E2E2E004D4D55204F4B2E201B
:10596000526573756D696E6720706F736974696FC6
:105970006E2E2E2E004D4D55204F4B2E205265730E
:10598000756D696E672074656D706572617475728E
:10599000652E2E2E00466978207468652069737321
:1059A000756520616E64207468656E207072657321
:1059B0007320627574746F6E206F6E204D4D55208C
:1059C000756E69742E00507265737320746865205B
:1059D0006B6E6F6220746F20726573756D65206EDB
:1059E0006F7A7A6C652074656D706572617475721A
:1059F000652E004D4D55206E656564732075736589
:105A00007220617474656E74696F6E2E00506C65DF
:105A10006173652072656D6F76652066696C616D76
:105A2000656E7420616E64207468656E20707265A6
:105A3000737320746865206B6E6F622E00456A6513
:105A40006374696E672066696C616D656E74004D84
:105A50004D55206C6F6164206661696C656420201F
:105A60002020200025632533642F25642563000052
:105A700000A0400000A040000000402533642073D7
:105A80007465703D253264206D73636E743D2534FA
:105A9000640A0000007F43008058439AD94943FFBD
:105AA000FFFF46696C616D656E74206F7574206FC1
:105AB000662072616E6765202564200A0067636F47
:105AC00064655F4D37303120626567696E0A004555
:105AD00072723A205052494E542046414E2045524F
